{
  "_format": "hh-sol-artifact-1",
  "contractName": "Token",
  "sourceName": "contracts/token.sol",
  "abi": [
    {
      "inputs": [],
      "stateMutability": "nonpayable",
      "type": "constructor"
    },
    {
      "inputs": [
        {
          "internalType": "address",
          "name": "spender",
          "type": "address"
        },
        {
          "internalType": "uint256",
          "name": "allowance",
          "type": "uint256"
        },
        {
          "internalType": "uint256",
          "name": "needed",
          "type": "uint256"
        }
      ],
      "name": "ERC20InsufficientAllowance",
      "type": "error"
    },
    {
      "inputs": [
        {
          "internalType": "address",
          "name": "sender",
          "type": "address"
        },
        {
          "internalType": "uint256",
          "name": "balance",
          "type": "uint256"
        },
        {
          "internalType": "uint256",
          "name": "needed",
          "type": "uint256"
        }
      ],
      "name": "ERC20InsufficientBalance",
      "type": "error"
    },
    {
      "inputs": [
        {
          "internalType": "address",
          "name": "approver",
          "type": "address"
        }
      ],
      "name": "ERC20InvalidApprover",
      "type": "error"
    },
    {
      "inputs": [
        {
          "internalType": "address",
          "name": "receiver",
          "type": "address"
        }
      ],
      "name": "ERC20InvalidReceiver",
      "type": "error"
    },
    {
      "inputs": [
        {
          "internalType": "address",
          "name": "sender",
          "type": "address"
        }
      ],
      "name": "ERC20InvalidSender",
      "type": "error"
    },
    {
      "inputs": [
        {
          "internalType": "address",
          "name": "spender",
          "type": "address"
        }
      ],
      "name": "ERC20InvalidSpender",
      "type": "error"
    },
    {
      "anonymous": false,
      "inputs": [
        {
          "indexed": true,
          "internalType": "address",
          "name": "owner",
          "type": "address"
        },
        {
          "indexed": true,
          "internalType": "address",
          "name": "spender",
          "type": "address"
        },
        {
          "indexed": false,
          "internalType": "uint256",
          "name": "value",
          "type": "uint256"
        }
      ],
      "name": "Approval",
      "type": "event"
    },
    {
      "anonymous": false,
      "inputs": [
        {
          "indexed": false,
          "internalType": "address",
          "name": "uploader",
          "type": "address"
        },
        {
          "indexed": false,
          "internalType": "string",
          "name": "documentHash",
          "type": "string"
        },
        {
          "indexed": false,
          "internalType": "uint256",
          "name": "reward",
          "type": "uint256"
        }
      ],
      "name": "DocumentUploaded",
      "type": "event"
    },
    {
      "anonymous": false,
      "inputs": [
        {
          "indexed": true,
          "internalType": "address",
          "name": "from",
          "type": "address"
        },
        {
          "indexed": true,
          "internalType": "address",
          "name": "to",
          "type": "address"
        },
        {
          "indexed": false,
          "internalType": "uint256",
          "name": "value",
          "type": "uint256"
        }
      ],
      "name": "Transfer",
      "type": "event"
    },
    {
      "inputs": [
        {
          "internalType": "address",
          "name": "owner",
          "type": "address"
        },
        {
          "internalType": "address",
          "name": "spender",
          "type": "address"
        }
      ],
      "name": "allowance",
      "outputs": [
        {
          "internalType": "uint256",
          "name": "",
          "type": "uint256"
        }
      ],
      "stateMutability": "view",
      "type": "function"
    },
    {
      "inputs": [
        {
          "internalType": "address",
          "name": "spender",
          "type": "address"
        },
        {
          "internalType": "uint256",
          "name": "value",
          "type": "uint256"
        }
      ],
      "name": "approve",
      "outputs": [
        {
          "internalType": "bool",
          "name": "",
          "type": "bool"
        }
      ],
      "stateMutability": "nonpayable",
      "type": "function"
    },
    {
      "inputs": [
        {
          "internalType": "address",
          "name": "uploader",
          "type": "address"
        }
      ],
      "name": "authorizeUploader",
      "outputs": [],
      "stateMutability": "nonpayable",
      "type": "function"
    },
    {
      "inputs": [
        {
          "internalType": "address",
          "name": "account",
          "type": "address"
        }
      ],
      "name": "balanceOf",
      "outputs": [
        {
          "internalType": "uint256",
          "name": "",
          "type": "uint256"
        }
      ],
      "stateMutability": "view",
      "type": "function"
    },
    {
      "inputs": [],
      "name": "claim",
      "outputs": [],
      "stateMutability": "nonpayable",
      "type": "function"
    },
    {
      "inputs": [],
      "name": "decimals",
      "outputs": [
        {
          "internalType": "uint8",
          "name": "",
          "type": "uint8"
        }
      ],
      "stateMutability": "view",
      "type": "function"
    },
    {
      "inputs": [],
      "name": "name",
      "outputs": [
        {
          "internalType": "string",
          "name": "",
          "type": "string"
        }
      ],
      "stateMutability": "view",
      "type": "function"
    },
    {
      "inputs": [],
      "name": "owner",
      "outputs": [
        {
          "internalType": "address",
          "name": "",
          "type": "address"
        }
      ],
      "stateMutability": "view",
      "type": "function"
    },
    {
      "inputs": [
        {
          "internalType": "address",
          "name": "uploader",
          "type": "address"
        }
      ],
      "name": "revokeUploaderAuthorization",
      "outputs": [],
      "stateMutability": "nonpayable",
      "type": "function"
    },
    {
      "inputs": [
        {
          "internalType": "uint256",
          "name": "amount",
          "type": "uint256"
        }
      ],
      "name": "stake",
      "outputs": [],
      "stateMutability": "nonpayable",
      "type": "function"
    },
    {
      "inputs": [
        {
          "internalType": "address",
          "name": "",
          "type": "address"
        }
      ],
      "name": "staked",
      "outputs": [
        {
          "internalType": "uint256",
          "name": "",
          "type": "uint256"
        }
      ],
      "stateMutability": "view",
      "type": "function"
    },
    {
      "inputs": [],
      "name": "symbol",
      "outputs": [
        {
          "internalType": "string",
          "name": "",
          "type": "string"
        }
      ],
      "stateMutability": "view",
      "type": "function"
    },
    {
      "inputs": [],
      "name": "totalSupply",
      "outputs": [
        {
          "internalType": "uint256",
          "name": "",
          "type": "uint256"
        }
      ],
      "stateMutability": "view",
      "type": "function"
    },
    {
      "inputs": [
        {
          "internalType": "address",
          "name": "to",
          "type": "address"
        },
        {
          "internalType": "uint256",
          "name": "value",
          "type": "uint256"
        }
      ],
      "name": "transfer",
      "outputs": [
        {
          "internalType": "bool",
          "name": "",
          "type": "bool"
        }
      ],
      "stateMutability": "nonpayable",
      "type": "function"
    },
    {
      "inputs": [
        {
          "internalType": "address",
          "name": "from",
          "type": "address"
        },
        {
          "internalType": "address",
          "name": "to",
          "type": "address"
        },
        {
          "internalType": "uint256",
          "name": "value",
          "type": "uint256"
        }
      ],
      "name": "transferFrom",
      "outputs": [
        {
          "internalType": "bool",
          "name": "",
          "type": "bool"
        }
      ],
      "stateMutability": "nonpayable",
      "type": "function"
    },
    {
      "inputs": [
        {
          "internalType": "uint256",
          "name": "amount",
          "type": "uint256"
        }
      ],
      "name": "unstake",
      "outputs": [],
      "stateMutability": "nonpayable",
      "type": "function"
    },
    {
      "inputs": [
        {
          "internalType": "string",
          "name": "documentHash",
          "type": "string"
        }
      ],
      "name": "uploadDocument",
      "outputs": [],
      "stateMutability": "nonpayable",
      "type": "function"
    }
  ],
  "bytecode": "0x60806040523480156200001157600080fd5b506040518060400160405280600d81526020017f4669786564205374616b696e67000000000000000000000000000000000000008152506040518060400160405280600381526020017f464958000000000000000000000000000000000000000000000000000000000081525081600390816200008f91906200066f565b508060049081620000a191906200066f565b50505033600860006101000a81548173ffffffffffffffffffffffffffffffffffffffff021916908373ffffffffffffffffffffffffffffffffffffffff1602179055506200012933620000fa6200012f60201b60201c565b60ff16600a6200010b9190620008d9565b64e8d4a510006200011d91906200092a565b6200013860201b60201c565b62000a7d565b60006012905090565b600073ffffffffffffffffffffffffffffffffffffffff168273ffffffffffffffffffffffffffffffffffffffff1603620001ad5760006040517fec442f05000000000000000000000000000000000000000000000000000000008152600401620001a49190620009ba565b60405180910390fd5b620001c160008383620001c560201b60201c565b5050565b600073ffffffffffffffffffffffffffffffffffffffff168373ffffffffffffffffffffffffffffffffffffffff16036200021b5780600260008282546200020e9190620009d7565b92505081905550620002f1565b60008060008573ffffffffffffffffffffffffffffffffffffffff1673ffffffffffffffffffffffffffffffffffffffff16815260200190815260200160002054905081811015620002aa578381836040517fe450d38c000000000000000000000000000000000000000000000000000000008152600401620002a19392919062000a23565b60405180910390fd5b8181036000808673ffffffffffffffffffffffffffffffffffffffff1673ffffffffffffffffffffffffffffffffffffffff16815260200190815260200160002081905550505b600073ffffffffffffffffffffffffffffffffffffffff168273ffffffffffffffffffffffffffffffffffffffff16036200033c578060026000828254039250508190555062000389565b806000808473ffffffffffffffffffffffffffffffffffffffff1673ffffffffffffffffffffffffffffffffffffffff168152602001908152602001600020600082825401925050819055505b8173ffffffffffffffffffffffffffffffffffffffff168373ffffffffffffffffffffffffffffffffffffffff167fddf252ad1be2c89b69c2b068fc378daa952ba7f163c4a11628f55a4df523b3ef83604051620003e8919062000a60565b60405180910390a3505050565b600081519050919050565b7f4e487b7100000000000000000000000000000000000000000000000000000000600052604160045260246000fd5b7f4e487b7100000000000000000000000000000000000000000000000000000000600052602260045260246000fd5b600060028204905060018216806200047757607f821691505b6020821081036200048d576200048c6200042f565b5b50919050565b60008190508160005260206000209050919050565b60006020601f8301049050919050565b600082821b905092915050565b600060088302620004f77fffffffffffffffffffffffffffffffffffffffffffffffffffffffffffffffff82620004b8565b620005038683620004b8565b95508019841693508086168417925050509392505050565b6000819050919050565b6000819050919050565b6000620005506200054a62000544846200051b565b62000525565b6200051b565b9050919050565b6000819050919050565b6200056c836200052f565b620005846200057b8262000557565b848454620004c5565b825550505050565b600090565b6200059b6200058c565b620005a881848462000561565b505050565b5b81811015620005d057620005c460008262000591565b600181019050620005ae565b5050565b601f8211156200061f57620005e98162000493565b620005f484620004a8565b8101602085101562000604578190505b6200061c6200061385620004a8565b830182620005ad565b50505b505050565b600082821c905092915050565b6000620006446000198460080262000624565b1980831691505092915050565b60006200065f838362000631565b9150826002028217905092915050565b6200067a82620003f5565b67ffffffffffffffff81111562000696576200069562000400565b5b620006a282546200045e565b620006af828285620005d4565b600060209050601f831160018114620006e75760008415620006d2578287015190505b620006de858262000651565b8655506200074e565b601f198416620006f78662000493565b60005b828110156200072157848901518255600182019150602085019450602081019050620006fa565b868310156200074157848901516200073d601f89168262000631565b8355505b6001600288020188555050505b505050505050565b7f4e487b7100000000000000000000000000000000000000000000000000000000600052601160045260246000fd5b60008160011c9050919050565b6000808291508390505b6001851115620007e457808604811115620007bc57620007bb62000756565b5b6001851615620007cc5780820291505b8081029050620007dc8562000785565b94506200079c565b94509492505050565b600082620007ff5760019050620008d2565b816200080f5760009050620008d2565b8160018114620008285760028114620008335762000869565b6001915050620008d2565b60ff84111562000848576200084762000756565b5b8360020a91508482111562000862576200086162000756565b5b50620008d2565b5060208310610133831016604e8410600b8410161715620008a35782820a9050838111156200089d576200089c62000756565b5b620008d2565b620008b2848484600162000792565b92509050818404811115620008cc57620008cb62000756565b5b81810290505b9392505050565b6000620008e6826200051b565b9150620008f3836200051b565b9250620009227fffffffffffffffffffffffffffffffffffffffffffffffffffffffffffffffff8484620007ed565b905092915050565b600062000937826200051b565b915062000944836200051b565b925082820262000954816200051b565b915082820484148315176200096e576200096d62000756565b5b5092915050565b600073ffffffffffffffffffffffffffffffffffffffff82169050919050565b6000620009a28262000975565b9050919050565b620009b48162000995565b82525050565b6000602082019050620009d16000830184620009a9565b92915050565b6000620009e4826200051b565b9150620009f1836200051b565b925082820190508082111562000a0c5762000a0b62000756565b5b92915050565b62000a1d816200051b565b82525050565b600060608201905062000a3a6000830186620009a9565b62000a49602083018562000a12565b62000a58604083018462000a12565b949350505050565b600060208201905062000a77600083018462000a12565b92915050565b611cd78062000a8d6000396000f3fe608060405234801561001057600080fd5b506004361061010b5760003560e01c80636b04ac9e116100a257806398807d841161007157806398807d8414610294578063a694fc3a146102c4578063a9059cbb146102e0578063b7f5576d14610310578063dd62ed3e1461032c5761010b565b80636b04ac9e1461020c57806370a08231146102285780638da5cb5b1461025857806395d89b41146102765761010b565b80632e17de78116100de5780632e17de78146101ac578063313ce567146101c85780634e71d92d146101e65780634f5e033d146101f05761010b565b806306fdde0314610110578063095ea7b31461012e57806318160ddd1461015e57806323b872dd1461017c575b600080fd5b61011861035c565b60405161012591906113af565b60405180910390f35b61014860048036038101906101439190611479565b6103ee565b60405161015591906114d4565b60405180910390f35b610166610411565b60405161017391906114fe565b60405180910390f35b61019660048036038101906101919190611519565b61041b565b6040516101a391906114d4565b60405180910390f35b6101c660048036038101906101c1919061156c565b61044a565b005b6101d061057b565b6040516101dd91906115b5565b60405180910390f35b6101ee610584565b005b61020a600480360381019061020591906115d0565b610705565b005b610226600480360381019061022191906115d0565b6107f0565b005b610242600480360381019061023d91906115d0565b6108db565b60405161024f91906114fe565b60405180910390f35b610260610923565b60405161026d919061160c565b60405180910390f35b61027e610949565b60405161028b91906113af565b60405180910390f35b6102ae60048036038101906102a991906115d0565b6109db565b6040516102bb91906114fe565b60405180910390f35b6102de60048036038101906102d9919061156c565b6109f3565b005b6102fa60048036038101906102f59190611479565b610b7a565b60405161030791906114d4565b60405180910390f35b61032a6004803603810190610325919061175c565b610b9d565b005b610346600480360381019061034191906117a5565b610c78565b60405161035391906114fe565b60405180910390f35b60606003805461036b90611814565b80601f016020809104026020016040519081016040528092919081815260200182805461039790611814565b80156103e45780601f106103b9576101008083540402835291602001916103e4565b820191906000526020600020905b8154815290600101906020018083116103c757829003601f168201915b5050505050905090565b6000806103f9610cff565b9050610406818585610d07565b600191505092915050565b6000600254905090565b600080610426610cff565b9050610433858285610d19565b61043e858585610dad565b60019150509392505050565b6000811161048d576040517f08c379a000000000000000000000000000000000000000000000000000000000815260040161048490611891565b60405180910390fd5b80600560003373ffffffffffffffffffffffffffffffffffffffff1673ffffffffffffffffffffffffffffffffffffffff16815260200190815260200160002054101561050f576040517f08c379a0000000000000000000000000000000000000000000000000000000008152600401610506906118fd565b60405180910390fd5b610517610584565b80600560003373ffffffffffffffffffffffffffffffffffffffff1673ffffffffffffffffffffffffffffffffffffffff1681526020019081526020016000206000828254610566919061194c565b92505081905550610578303383610dad565b50565b60006012905090565b6000600560003373ffffffffffffffffffffffffffffffffffffffff1673ffffffffffffffffffffffffffffffffffffffff1681526020019081526020016000205411610606576040517f08c379a00000000000000000000000000000000000000000000000000000000081526004016105fd906119cc565b60405180910390fd5b6000600660003373ffffffffffffffffffffffffffffffffffffffff1673ffffffffffffffffffffffffffffffffffffffff1681526020019081526020016000205442610653919061194c565b905060006301e1432082600560003373ffffffffffffffffffffffffffffffffffffffff1673ffffffffffffffffffffffffffffffffffffffff168152602001908152602001600020546106a791906119ec565b6106b19190611a5d565b90506106bd3382610ea1565b42600660003373ffffffffffffffffffffffffffffffffffffffff1673ffffffffffffffffffffffffffffffffffffffff168152602001908152602001600020819055505050565b600860009054906101000a900473ffffffffffffffffffffffffffffffffffffffff1673ffffffffffffffffffffffffffffffffffffffff163373ffffffffffffffffffffffffffffffffffffffff1614610795576040517f08c379a000000000000000000000000000000000000000000000000000000000815260040161078c90611b00565b60405180910390fd5b6001600760008373ffffffffffffffffffffffffffffffffffffffff1673ffffffffffffffffffffffffffffffffffffffff16815260200190815260200160002060006101000a81548160ff02191690831515021790555050565b600860009054906101000a900473ffffffffffffffffffffffffffffffffffffffff1673ffffffffffffffffffffffffffffffffffffffff163373ffffffffffffffffffffffffffffffffffffffff1614610880576040517f08c379a000000000000000000000000000000000000000000000000000000000815260040161087790611b00565b60405180910390fd5b6000600760008373ffffffffffffffffffffffffffffffffffffffff1673ffffffffffffffffffffffffffffffffffffffff16815260200190815260200160002060006101000a81548160ff02191690831515021790555050565b60008060008373ffffffffffffffffffffffffffffffffffffffff1673ffffffffffffffffffffffffffffffffffffffff168152602001908152602001600020549050919050565b600860009054906101000a900473ffffffffffffffffffffffffffffffffffffffff1681565b60606004805461095890611814565b80601f016020809104026020016040519081016040528092919081815260200182805461098490611814565b80156109d15780601f106109a6576101008083540402835291602001916109d1565b820191906000526020600020905b8154815290600101906020018083116109b457829003601f168201915b5050505050905090565b60056020528060005260406000206000915090505481565b60008111610a36576040517f08c379a0000000000000000000000000000000000000000000000000000000008152600401610a2d90611891565b60405180910390fd5b80610a40336108db565b1015610a81576040517f08c379a0000000000000000000000000000000000000000000000000000000008152600401610a7890611b6c565b60405180910390fd5b610a8c333083610dad565b6000600560003373ffffffffffffffffffffffffffffffffffffffff1673ffffffffffffffffffffffffffffffffffffffff168152602001908152602001600020541115610add57610adc610584565b5b42600660003373ffffffffffffffffffffffffffffffffffffffff1673ffffffffffffffffffffffffffffffffffffffff1681526020019081526020016000208190555080600560003373ffffffffffffffffffffffffffffffffffffffff1673ffffffffffffffffffffffffffffffffffffffff1681526020019081526020016000206000828254610b709190611b8c565b9250508190555050565b600080610b85610cff565b9050610b92818585610dad565b600191505092915050565b600760003373ffffffffffffffffffffffffffffffffffffffff1673ffffffffffffffffffffffffffffffffffffffff16815260200190815260200160002060009054906101000a900460ff16610c29576040517f08c379a0000000000000000000000000000000000000000000000000000000008152600401610c2090611c0c565b60405180910390fd5b600060649050610c393382610ea1565b7f2d3155c543cac1f38e4f6112f8c4f90f3fc9a6ae7f7ec0c6e0b1c88c92e332af338383604051610c6c93929190611c2c565b60405180910390a15050565b6000600160008473ffffffffffffffffffffffffffffffffffffffff1673ffffffffffffffffffffffffffffffffffffffff16815260200190815260200160002060008373ffffffffffffffffffffffffffffffffffffffff1673ffffffffffffffffffffffffffffffffffffffff16815260200190815260200160002054905092915050565b600033905090565b610d148383836001610f23565b505050565b6000610d258484610c78565b90507fffffffffffffffffffffffffffffffffffffffffffffffffffffffffffffffff8114610da75781811015610d97578281836040517ffb8f41b2000000000000000000000000000000000000000000000000000000008152600401610d8e93929190611c6a565b60405180910390fd5b610da684848484036000610f23565b5b50505050565b600073ffffffffffffffffffffffffffffffffffffffff168373ffffffffffffffffffffffffffffffffffffffff1603610e1f5760006040517f96c6fd1e000000000000000000000000000000000000000000000000000000008152600401610e16919061160c565b60405180910390fd5b600073ffffffffffffffffffffffffffffffffffffffff168273ffffffffffffffffffffffffffffffffffffffff1603610e915760006040517fec442f05000000000000000000000000000000000000000000000000000000008152600401610e88919061160c565b60405180910390fd5b610e9c8383836110fa565b505050565b600073ffffffffffffffffffffffffffffffffffffffff168273ffffffffffffffffffffffffffffffffffffffff1603610f135760006040517fec442f05000000000000000000000000000000000000000000000000000000008152600401610f0a919061160c565b60405180910390fd5b610f1f600083836110fa565b5050565b600073ffffffffffffffffffffffffffffffffffffffff168473ffffffffffffffffffffffffffffffffffffffff1603610f955760006040517fe602df05000000000000000000000000000000000000000000000000000000008152600401610f8c919061160c565b60405180910390fd5b600073ffffffffffffffffffffffffffffffffffffffff168373ffffffffffffffffffffffffffffffffffffffff16036110075760006040517f94280d62000000000000000000000000000000000000000000000000000000008152600401610ffe919061160c565b60405180910390fd5b81600160008673ffffffffffffffffffffffffffffffffffffffff1673ffffffffffffffffffffffffffffffffffffffff16815260200190815260200160002060008573ffffffffffffffffffffffffffffffffffffffff1673ffffffffffffffffffffffffffffffffffffffff1681526020019081526020016000208190555080156110f4578273ffffffffffffffffffffffffffffffffffffffff168473ffffffffffffffffffffffffffffffffffffffff167f8c5be1e5ebec7d5bd14f71427d1e84f3dd0314c0f7b2291e5b200ac8c7c3b925846040516110eb91906114fe565b60405180910390a35b50505050565b600073ffffffffffffffffffffffffffffffffffffffff168373ffffffffffffffffffffffffffffffffffffffff160361114c5780600260008282546111409190611b8c565b9250508190555061121f565b60008060008573ffffffffffffffffffffffffffffffffffffffff1673ffffffffffffffffffffffffffffffffffffffff168152602001908152602001600020549050818110156111d8578381836040517fe450d38c0000000000000000000000000000000000000000000000000000000081526004016111cf93929190611c6a565b60405180910390fd5b8181036000808673ffffffffffffffffffffffffffffffffffffffff1673ffffffffffffffffffffffffffffffffffffffff16815260200190815260200160002081905550505b600073ffffffffffffffffffffffffffffffffffffffff168273ffffffffffffffffffffffffffffffffffffffff160361126857806002600082825403925050819055506112b5565b806000808473ffffffffffffffffffffffffffffffffffffffff1673ffffffffffffffffffffffffffffffffffffffff168152602001908152602001600020600082825401925050819055505b8173ffffffffffffffffffffffffffffffffffffffff168373ffffffffffffffffffffffffffffffffffffffff167fddf252ad1be2c89b69c2b068fc378daa952ba7f163c4a11628f55a4df523b3ef8360405161131291906114fe565b60405180910390a3505050565b600081519050919050565b600082825260208201905092915050565b60005b8381101561135957808201518184015260208101905061133e565b60008484015250505050565b6000601f19601f8301169050919050565b60006113818261131f565b61138b818561132a565b935061139b81856020860161133b565b6113a481611365565b840191505092915050565b600060208201905081810360008301526113c98184611376565b905092915050565b6000604051905090565b600080fd5b600080fd5b600073ffffffffffffffffffffffffffffffffffffffff82169050919050565b6000611410826113e5565b9050919050565b61142081611405565b811461142b57600080fd5b50565b60008135905061143d81611417565b92915050565b6000819050919050565b61145681611443565b811461146157600080fd5b50565b6000813590506114738161144d565b92915050565b600080604083850312156114905761148f6113db565b5b600061149e8582860161142e565b92505060206114af85828601611464565b9150509250929050565b60008115159050919050565b6114ce816114b9565b82525050565b60006020820190506114e960008301846114c5565b92915050565b6114f881611443565b82525050565b600060208201905061151360008301846114ef565b92915050565b600080600060608486031215611532576115316113db565b5b60006115408682870161142e565b93505060206115518682870161142e565b925050604061156286828701611464565b9150509250925092565b600060208284031215611582576115816113db565b5b600061159084828501611464565b91505092915050565b600060ff82169050919050565b6115af81611599565b82525050565b60006020820190506115ca60008301846115a6565b92915050565b6000602082840312156115e6576115e56113db565b5b60006115f48482850161142e565b91505092915050565b61160681611405565b82525050565b600060208201905061162160008301846115fd565b92915050565b600080fd5b600080fd5b7f4e487b7100000000000000000000000000000000000000000000000000000000600052604160045260246000fd5b61166982611365565b810181811067ffffffffffffffff8211171561168857611687611631565b5b80604052505050565b600061169b6113d1565b90506116a78282611660565b919050565b600067ffffffffffffffff8211156116c7576116c6611631565b5b6116d082611365565b9050602081019050919050565b82818337600083830152505050565b60006116ff6116fa846116ac565b611691565b90508281526020810184848401111561171b5761171a61162c565b5b6117268482856116dd565b509392505050565b600082601f83011261174357611742611627565b5b81356117538482602086016116ec565b91505092915050565b600060208284031215611772576117716113db565b5b600082013567ffffffffffffffff8111156117905761178f6113e0565b5b61179c8482850161172e565b91505092915050565b600080604083850312156117bc576117bb6113db565b5b60006117ca8582860161142e565b92505060206117db8582860161142e565b9150509250929050565b7f4e487b7100000000000000000000000000000000000000000000000000000000600052602260045260246000fd5b6000600282049050600182168061182c57607f821691505b60208210810361183f5761183e6117e5565b5b50919050565b7f616d6f756e74206973203c3d2030000000000000000000000000000000000000600082015250565b600061187b600e8361132a565b915061188682611845565b602082019050919050565b600060208201905081810360008301526118aa8161186e565b9050919050565b7f616d6f756e74206973203e207374616b65640000000000000000000000000000600082015250565b60006118e760128361132a565b91506118f2826118b1565b602082019050919050565b60006020820190508181036000830152611916816118da565b9050919050565b7f4e487b7100000000000000000000000000000000000000000000000000000000600052601160045260246000fd5b600061195782611443565b915061196283611443565b925082820390508181111561197a5761197961191d565b5b92915050565b7f7374616b6564206973203c3d2030000000000000000000000000000000000000600082015250565b60006119b6600e8361132a565b91506119c182611980565b602082019050919050565b600060208201905081810360008301526119e5816119a9565b9050919050565b60006119f782611443565b9150611a0283611443565b9250828202611a1081611443565b91508282048414831517611a2757611a2661191d565b5b5092915050565b7f4e487b7100000000000000000000000000000000000000000000000000000000600052601260045260246000fd5b6000611a6882611443565b9150611a7383611443565b925082611a8357611a82611a2e565b5b828204905092915050565b7f4f6e6c7920746865206f776e65722063616e2063616c6c20746869732066756e60008201527f6374696f6e000000000000000000000000000000000000000000000000000000602082015250565b6000611aea60258361132a565b9150611af582611a8e565b604082019050919050565b60006020820190508181036000830152611b1981611add565b9050919050565b7f62616c616e6365206973203c3d20616d6f756e74000000000000000000000000600082015250565b6000611b5660148361132a565b9150611b6182611b20565b602082019050919050565b60006020820190508181036000830152611b8581611b49565b9050919050565b6000611b9782611443565b9150611ba283611443565b9250828201905080821115611bba57611bb961191d565b5b92915050565b7f55706c6f61646572206e6f7420617574686f72697a6564000000000000000000600082015250565b6000611bf660178361132a565b9150611c0182611bc0565b602082019050919050565b60006020820190508181036000830152611c2581611be9565b9050919050565b6000606082019050611c4160008301866115fd565b8181036020830152611c538185611376565b9050611c6260408301846114ef565b949350505050565b6000606082019050611c7f60008301866115fd565b611c8c60208301856114ef565b611c9960408301846114ef565b94935050505056fea2646970667358221220ef0099fc7f55151c32d325e0dbb6f96ff12da3ff4ceb8fca56e23f49120eafcc64736f6c63430008180033",
  "linkReferences": {},
  "deployedLinkReferences": {}
}